:020000040000FA
:1020000070EF3FF0FFFFFFFF1000FFFFFFFFFFFF3C
:10201000FFFFFFFFFFFFFFFF1000FFFFFFFFFFFFBE
:10202000FFFFFFFFFFFFFFFFFFFFFFFFFFFFFFFFC0
:10203000FFFFFFFFFFFFFFFFFFFFFFFFFFFFFFFFB0
:107EC000FFFFFFFFFFFFFFFFFFFFFFFFFFFFFFFFC2
:107ED000FFFFFFFFFFFFFFFFFFFFFFFFFFFFFFFFB2
:107EE000700ED36E0F015B6B92689298809880A49D
:107EF0007DEF3FF0899877EF3FF0898877EF3FF08B
:020000040030CA
:0800000023280E3CFFD181FF13
:020000040020DA
:08000000060F0B0600000000D2
:00000001FF
